{
  "_format": "hh-sol-artifact-1",
  "contractName": "TodoDappContract",
  "sourceName": "contracts/TodoDappContrac.sol",
  "abi": [
    {
      "anonymous": false,
      "inputs": [
        {
          "indexed": false,
          "internalType": "address",
          "name": "recipient",
          "type": "address"
        },
        {
          "indexed": false,
          "internalType": "uint256",
          "name": "taskId",
          "type": "uint256"
        }
      ],
      "name": "InputeTask",
      "type": "event"
    },
    {
      "anonymous": false,
      "inputs": [
        {
          "indexed": false,
          "internalType": "uint256",
          "name": "taskId",
          "type": "uint256"
        },
        {
          "indexed": false,
          "internalType": "bool",
          "name": "isRemoved",
          "type": "bool"
        }
      ],
      "name": "RemoveTask",
      "type": "event"
    },
    {
      "inputs": [],
      "name": "getTasks",
      "outputs": [
        {
          "components": [
            {
              "internalType": "uint256",
              "name": "id",
              "type": "uint256"
            },
            {
              "internalType": "address",
              "name": "username",
              "type": "address"
            },
            {
              "internalType": "string",
              "name": "taskText",
              "type": "string"
            },
            {
              "internalType": "bool",
              "name": "isRemoved",
              "type": "bool"
            }
          ],
          "internalType": "struct TodoDappContract.Task[]",
          "name": "",
          "type": "tuple[]"
        }
      ],
      "stateMutability": "view",
      "type": "function"
    },
    {
      "inputs": [
        {
          "internalType": "string",
          "name": "taskText",
          "type": "string"
        },
        {
          "internalType": "bool",
          "name": "isRemoved",
          "type": "bool"
        }
      ],
      "name": "inputeTask",
      "outputs": [],
      "stateMutability": "nonpayable",
      "type": "function"
    },
    {
      "inputs": [
        {
          "internalType": "uint256",
          "name": "taskId",
          "type": "uint256"
        },
        {
          "internalType": "bool",
          "name": "isRemoved",
          "type": "bool"
        }
      ],
      "name": "removeTask",
      "outputs": [],
      "stateMutability": "nonpayable",
      "type": "function"
    }
  ],
  "bytecode": "0x608060405234801561001057600080fd5b50610f51806100206000396000f3fe608060405234801561001057600080fd5b50600436106100415760003560e01c806304a87e38146100465780639a5fafda14610064578063ea25222e14610080575b600080fd5b61004e61009c565b60405161005b91906108b9565b60405180910390f35b61007e60048036038101906100799190610a50565b6103e8565b005b61009a60048036038101906100959190610ad8565b61056e565b005b60606000808054905067ffffffffffffffff8111156100be576100bd6108f9565b5b6040519080825280602002602001820160405280156100f757816020015b6100e461064f565b8152602001906001900390816100dc5790505b5090506000805b60008054905081101561032e573373ffffffffffffffffffffffffffffffffffffffff166001600083815260200190815260200160002060009054906101000a900473ffffffffffffffffffffffffffffffffffffffff1673ffffffffffffffffffffffffffffffffffffffff161480156101af5750600015156000828154811061018c5761018b610b18565b5b906000526020600020906004020160030160009054906101000a900460ff161515145b1561031b57600081815481106101c8576101c7610b18565b5b9060005260206000209060040201604051806080016040529081600082015481526020016001820160009054906101000a900473ffffffffffffffffffffffffffffffffffffffff1673ffffffffffffffffffffffffffffffffffffffff1673ffffffffffffffffffffffffffffffffffffffff16815260200160028201805461025190610b76565b80601f016020809104026020016040519081016040528092919081815260200182805461027d90610b76565b80156102ca5780601f1061029f576101008083540402835291602001916102ca565b820191906000526020600020905b8154815290600101906020018083116102ad57829003601f168201915b505050505081526020016003820160009054906101000a900460ff16151515158152505083838151811061030157610300610b18565b5b6020026020010181905250818061031790610bd6565b9250505b808061032690610bd6565b9150506100fe565b5060008167ffffffffffffffff81111561034b5761034a6108f9565b5b60405190808252806020026020018201604052801561038457816020015b61037161064f565b8152602001906001900390816103695790505b50905060005b828110156103de578381815181106103a5576103a4610b18565b5b60200260200101518282815181106103c0576103bf610b18565b5b602002602001018190525080806103d690610bd6565b91505061038a565b5080935050505090565b600080805490509050600060405180608001604052808381526020013373ffffffffffffffffffffffffffffffffffffffff16815260200185815260200184151581525090806001815401808255809150506001900390600052602060002090600402016000909190919091506000820151816000015560208201518160010160006101000a81548173ffffffffffffffffffffffffffffffffffffffff021916908373ffffffffffffffffffffffffffffffffffffffff16021790555060408201518160020190816104bb9190610dca565b5060608201518160030160006101000a81548160ff0219169083151502179055505050336001600083815260200190815260200160002060006101000a81548173ffffffffffffffffffffffffffffffffffffffff021916908373ffffffffffffffffffffffffffffffffffffffff1602179055507f1eba52924b34b43b1940aff783a9d48ef14e135a583934271b598bf1d0b58c393382604051610561929190610eba565b60405180910390a1505050565b3373ffffffffffffffffffffffffffffffffffffffff166001600084815260200190815260200160002060009054906101000a900473ffffffffffffffffffffffffffffffffffffffff1673ffffffffffffffffffffffffffffffffffffffff160361064b5780600083815481106105e9576105e8610b18565b5b906000526020600020906004020160030160006101000a81548160ff0219169083151502179055507f157cb0533cad35d3ac1fbf029c30153ad0666c38b245dd946ed0899e7bbf86ef8282604051610642929190610ef2565b60405180910390a15b5050565b604051806080016040528060008152602001600073ffffffffffffffffffffffffffffffffffffffff168152602001606081526020016000151581525090565b600081519050919050565b600082825260208201905092915050565b6000819050602082019050919050565b6000819050919050565b6106ce816106bb565b82525050565b600073ffffffffffffffffffffffffffffffffffffffff82169050919050565b60006106ff826106d4565b9050919050565b61070f816106f4565b82525050565b600081519050919050565b600082825260208201905092915050565b60005b8381101561074f578082015181840152602081019050610734565b60008484015250505050565b6000601f19601f8301169050919050565b600061077782610715565b6107818185610720565b9350610791818560208601610731565b61079a8161075b565b840191505092915050565b60008115159050919050565b6107ba816107a5565b82525050565b60006080830160008301516107d860008601826106c5565b5060208301516107eb6020860182610706565b5060408301518482036040860152610803828261076c565b915050606083015161081860608601826107b1565b508091505092915050565b600061082f83836107c0565b905092915050565b6000602082019050919050565b600061084f8261068f565b610859818561069a565b93508360208202850161086b856106ab565b8060005b858110156108a757848403895281516108888582610823565b945061089383610837565b925060208a0199505060018101905061086f565b50829750879550505050505092915050565b600060208201905081810360008301526108d38184610844565b905092915050565b6000604051905090565b600080fd5b600080fd5b600080fd5b600080fd5b7f4e487b7100000000000000000000000000000000000000000000000000000000600052604160045260246000fd5b6109318261075b565b810181811067ffffffffffffffff821117156109505761094f6108f9565b5b80604052505050565b60006109636108db565b905061096f8282610928565b919050565b600067ffffffffffffffff82111561098f5761098e6108f9565b5b6109988261075b565b9050602081019050919050565b82818337600083830152505050565b60006109c76109c284610974565b610959565b9050828152602081018484840111156109e3576109e26108f4565b5b6109ee8482856109a5565b509392505050565b600082601f830112610a0b57610a0a6108ef565b5b8135610a1b8482602086016109b4565b91505092915050565b610a2d816107a5565b8114610a3857600080fd5b50565b600081359050610a4a81610a24565b92915050565b60008060408385031215610a6757610a666108e5565b5b600083013567ffffffffffffffff811115610a8557610a846108ea565b5b610a91858286016109f6565b9250506020610aa285828601610a3b565b9150509250929050565b610ab5816106bb565b8114610ac057600080fd5b50565b600081359050610ad281610aac565b92915050565b60008060408385031215610aef57610aee6108e5565b5b6000610afd85828601610ac3565b9250506020610b0e85828601610a3b565b9150509250929050565b7f4e487b7100000000000000000000000000000000000000000000000000000000600052603260045260246000fd5b7f4e487b7100000000000000000000000000000000000000000000000000000000600052602260045260246000fd5b60006002820490506001821680610b8e57607f821691505b602082108103610ba157610ba0610b47565b5b50919050565b7f4e487b7100000000000000000000000000000000000000000000000000000000600052601160045260246000fd5b6000610be1826106bb565b91507fffffffffffffffffffffffffffffffffffffffffffffffffffffffffffffffff8203610c1357610c12610ba7565b5b600182019050919050565b60008190508160005260206000209050919050565b60006020601f8301049050919050565b600082821b905092915050565b600060088302610c807fffffffffffffffffffffffffffffffffffffffffffffffffffffffffffffffff82610c43565b610c8a8683610c43565b95508019841693508086168417925050509392505050565b6000819050919050565b6000610cc7610cc2610cbd846106bb565b610ca2565b6106bb565b9050919050565b6000819050919050565b610ce183610cac565b610cf5610ced82610cce565b848454610c50565b825550505050565b600090565b610d0a610cfd565b610d15818484610cd8565b505050565b5b81811015610d3957610d2e600082610d02565b600181019050610d1b565b5050565b601f821115610d7e57610d4f81610c1e565b610d5884610c33565b81016020851015610d67578190505b610d7b610d7385610c33565b830182610d1a565b50505b505050565b600082821c905092915050565b6000610da160001984600802610d83565b1980831691505092915050565b6000610dba8383610d90565b9150826002028217905092915050565b610dd382610715565b67ffffffffffffffff811115610dec57610deb6108f9565b5b610df68254610b76565b610e01828285610d3d565b600060209050601f831160018114610e345760008415610e22578287015190505b610e2c8582610dae565b865550610e94565b601f198416610e4286610c1e565b60005b82811015610e6a57848901518255600182019150602085019450602081019050610e45565b86831015610e875784890151610e83601f891682610d90565b8355505b6001600288020188555050505b505050505050565b610ea5816106f4565b82525050565b610eb4816106bb565b82525050565b6000604082019050610ecf6000830185610e9c565b610edc6020830184610eab565b9392505050565b610eec816107a5565b82525050565b6000604082019050610f076000830185610eab565b610f146020830184610ee3565b939250505056fea2646970667358221220bb97c516d8a5f16f1d029f3b4b1484c0fa68045712985892cff4ca7d03f261d764736f6c63430008130033",
  "linkReferences": {},
  "deployedLinkReferences": {}
}